:1000000057C09EC070C06FC06EC06DC06CC06BC06A
:100010006AC069C068C067C066C065C064C00501C9
:100020000906A101050719E029E715002501750159
:1000300095088102950175082565190029658100DB
:10004000C009022200010100801909040000010317
:10005000000000092101010001222300070581039E
:1000600008000A1201100100000008424231E100BC
:1000700001010200011E0331002D004B00650079D3
:10008000002D004B006500790062006F0061007276
:10009000006400180366006C006900700077006F50
:1000A0000072006B002E006E006C00040309040057
:1000B00011241FBECFE5D2E0DEBFCDBF10E0A0E629
:1000C000B0E0ECE5F8E002C005900D92A236B10771
:1000D000D9F720E0A2E6B0E001C01D92A23AB20733
:1000E000E1F705D2B9C38CCFA82FB92F80E090E0FB
:1000F00041E050EA609530E009C02D918227979544
:10010000879510F084279527305EC8F36F5FA8F3BA
:100110000895EADF8D939D930895A6E08827992797
:10012000AA9569F00197E1F3B099FCCFB09BFECF9F
:1001300081E09927A6B3019611F0A570D9F708952B
:10014000CF93CFB7CF93C395B09BE9F7B09B0BC0CC
:10015000B09B09C0B09B07C0B09B05C0B09B03C05B
:10016000B09B01C0D5C00F92DF93C0918500DD2701
:10017000C457DF4F012EB09B03C0DF910F90E6CF35
:100180002F930F931F934F932FEF4F6F06B300FBE7
:1001900020F95F933F9350E03BE065C016B3012622
:1001A000502950FDC89556B3012700FB25F92F7340
:1001B00006B3B1F05027102710FB26F906B2223003
:1001C000F0F000C016B3012700FB27F901265029E3
:1001D00006B22430E8F54F77206816B30000F6CF5A
:1001E00050274F7D206206B2102F000000C006B3DA
:1001F00000265029102710FB26F906B2E2CF4F7BCC
:1002000006B3206400C0DACF01265029157006B26B
:1002100069F14E7F2160012F16B328C000265029B6
:100220004D7F06B22260102F29C0012650294B7F36
:1002300006B22460012F2DC016B301265029477F36
:100240002860000006B22EC04F7E06B3206130C089
:10025000422706B3499300265029102706B24FEFD4
:1002600010FB20F9297F16B379F2157059F1012698
:10027000502906B2012700FB21F9237F06B371F252
:10028000002650293150D0F006B2102710FB22F979
:10029000277E16B351F201265029012700FB06B232
:1002A00023F92F7C49F2000006B3102710FB24F934
:1002B0000026502906B22F7939F270CF10E41ABF08
:1002C000002719C03B503195C31BD04010E41ABF22
:1002D0000881033C09F10B34F9F020918300198166
:1002E000110F1213EDCF4A81441F093651F10D321F
:1002F00011F0013E29F700938A003F915F914F91E1
:100300001F910F912F91DF910F90CAB7C6FD1BCFA0
:10031000CF91CFBFCF91189520918A00222369F306
:1003200010918800112379F534307AF130938800E8
:1003300020938400109185003BE0311B30938500B1
:1003400024C0009188000130F4F40AE54F7049F4AC
:100350003091610034FD1AC000936100CCE6D0E01A
:1003600019C03091770034FD11C000937700C8E7C1
:10037000D0E010C0052710E000C021C0052710E024
:10038000C89508BB14C03AE501C032ED032EC0E0A9
:10039000D0E032E017B31560C09A08B317BB55E040
:1003A00020E84FEF20FF052708BB279517951C3F36
:1003B00028F700004552B0F720FF0527279508BB16
:1003C00017951C3FB8F629913A9561F70A7F10916D
:1003D0008900110F08BBC250D04011F01093830068
:1003E00010E41ABF016017B31A7F402F4A7F54E010
:1003F0005A95F1F708BB17BB48BB7FCF90916600B9
:10040000911106C080916500813021F486E103C01E
:1004100080E001C088E29F5F9093660010926800C0
:10042000809369000895FC0188E690E0909387002E
:1004300080938600808180768032A9F4818181302A
:1004400019F4DCDF82E00895823041F487E690E021
:10045000909387008093860081E008958A3019F494
:1004600083818093670080E00895DF92EF92FF928E
:100470000F931F93CF93DF93C8E0D0E0F12C80E877
:10048000E82EDE2CDF0CD1BE48DE8C01043389E07F
:1004900018070CF4FD2CE6942197209791F78FEF25
:1004A0008F0D81BFCF2DD0E0219681B790E0C81786
:1004B000D9078CF032DE8453994097FF03C09195A1
:1004C000819591098017910714F4F1B68C0181B7D9
:1004D0008F5F81BFEACFF1BE61B780E090E0DF912E
:1004E000CF911F910F91FF90EF90DF90A7C180E017
:1004F00090E09CD18F3F09F081BF8BD1B89A80E00A
:10050000815041F0A895ECE1F0E13197F1F700C09E
:100510000000F6CFB8982EE088E190E00FB6F8948E
:10052000A89581BD0FBE21BDC39A8BE080BF789492
:10053000D1E0C1E014E0A8955AD08091770084FF03
:1005400009C080916600823028F458DF62E088E6B6
:1005500090E029D086B383FB882780F98D2790917E
:100560006500891751F090916400913031F48093C7
:100570006500109264001092660008B602FEDBCFA0
:1005800018BF809162009091630001969093630080
:1005900080936200039778F21092630010926200D9
:1005A000C0936400C8CFCF93C62F2091770024FF5B
:1005B00007C02091780038E823272093780003C0F3
:1005C0002AE520937700DC01E9E7F0E09C2F9E0FFD
:1005D0008D918193892F8E1B1816D4F36C2F89E788
:1005E00090E097DDCC5FC0937700CF910895CF93D3
:1005F000DF9380918800835087FDA8C0909185008B
:10060000209184002D3209F09FC0883009F09CC0F1
:10061000CCE0D0E0C91BD109C457DF4F83EC8093F5
:100620006C008AE58093610010926B00888180766F
:1006300019F0CE01F8DE7FC09A8110927500898191
:10064000811106C01092760025E730E082E06FC08D
:10065000853019F49093890067C0863009F04EC048
:100660008B81813041F483E690E090938700809302
:10067000860082E13FC0823041F481E490E09093B3
:1006800087008093860082E235C08330F1F49111B7
:1006900008C08BEA90E0909387008093860084E006
:1006A00029C0913041F483E990E0909387008093D2
:1006B000860088E11FC09230E1F485E790E09093D6
:1006C0008700809386008EE115C0813241F483E576
:1006D00090E0909387008093860089E00BC082327F
:1006E00041F48EE190E0909387008093860083E24E
:1006F00001C080E090E490936B001DC0883069F0E9
:10070000893019F490938B000FC08A3049F08B30F8
:1007100059F48BE48093780007C02BE830E002C0E6
:1007200025E730E081E003C025E730E080E030934A
:100730008700209386009F81911104C09E819817A5
:1007400008F4892F809360001092880080916100E6
:1007500084FF46C0809160008F3F09F441C0C82FDC
:10076000893008F0C8E08C1B8093600080916C0099
:1007700098E8892780936C00CC2331F12091860082
:100780003091870080916B0086FF0BC0ADE6B0E032
:10079000F9018C2F8A0F94919D9331968A13FBCF88
:1007A00009C0D901EDE6F0E08C2F8E0F9D91919359
:1007B0008E13FCCF8FEF8C0F90E00196820F931F6A
:1007C00090938700809386006C2F8DE690E0A1DCEB
:1007D000CC5FCC3019F08FEF80936000C093610044
:1007E00084E196B3957031F48150D9F71092890065
:1007F00010928300C1E08111C0E080916A008C17E3
:1008000029F0C11101C031DEC0936A00DF91CF91A0
:10081000089585B7836085BF8BB780648BBF8BE4F9
:10082000809378008AE5809377000895E199FECF60
:100830009FBB8EBBE09A99278DB30895262FE1992F
:10084000FECF1CBA9FBB8EBB2DBB0FB6F894E29AAD
:0C085000E19A0FBE01960895F894FFCFC6
:02085C00FF5A41
:00000001FF
